:1009D600416363657373204772616E746564004496
:1009E6004F4F52204F50454E454400416363657357
:1009F600732064656E69656400456E74657220795E
:080A06006F75722070696E002B
:090AB800070837333732373100EB
:090A6C007F2A120AAA7FE87E032A
:100A7500E4FDFCC3ED9FEC9E5015E4FBFA0BBB00B7
:0F0A8500010AEB64084A70F50DBD00010C80E416
:010A9400223F
:070A95007F01120A9C7F8023
:0E0A9C008F90C2B5C2B6D2B7120A71C2B7228D
:0E0AAA008F90D2B5C2B6D2B7120A71C2B7226F
:060A0E008B178A188919FC
:100A1400E4F51AF51BAB17AA18A919851B82851AC8
:100A240083120A3FFF600D120AAA051BE51B70E53D
:0B0A3400051A80E17FE87E03020A75CE
:10080000E4FFFEEF4E6003020898C2A0D2A1D2A27C
:10081000D2A320B006120A6C7F312220B106120A40
:100820006C7F322220B206120A6C7F3322D2A0C221
:10083000A1D2A2D2A320B006120A6C7F342220B12A
:1008400006120A6C7F352220B206120A6C7F36220D
:10085000D2A0D2A1C2A2D2A320B006120A6C7F37C6
:100860002220B106120A6C7F382220B206120A6CCE
:100870007F3922D2A0D2A1D2A2C2A320B006120AEE
:100880006C7F2A2220B106120A6C7F302230B2031C
:08089000020803120A6C7F2329
:01089800223D
:10092500E508650F7048E50965107042E50A65112F
:10093500703CE50B65127036E50C65137030E50DFE
:100945006514702A120A71120A957BFF7A0979D605
:10095500120A0E120A71D2B3C2B47FC0120A9C7B6E
:10096500FF7A0979E5120A0ED2B3C2B4800F120AD2
:10097500957BFF7A0979F1120A0E120A717F01122D
:030985000A9C22A7
:0F0988007F0F120A9C7F38120A9C7F01120A9C73
:10099700E4F515F5167F80120A9C7BFF7A0979FF2B
:1009A700120A0E120A717FC0120A9C74082516F8E3
:1009B700E66017120800740F2516F8A607120A71C9
:0D09C7000516E51670E5051580E1120925FD
:0209D40080C1E0
:030000000208995A
:0C089900787FE4F6D8FD75811B0208E0B2
:100A3F00BB010CE58229F582E5833AF583E022506C
:100A4F0006E92582F8E622BBFE06E92582F8E222B6
:0D0A5F00E58229F582E5833AF583E49322D0
:1008A500020988E493A3F8E493A34003F68001F2D8
:1008B50008DFF48029E493A3F85407240CC8C33354
:1008C500C4540F4420C8834004F456800146F6DF23
:1008D500E4800B0102040810204080900AB8E47EF1
:1008E500019360BCA3FF543F30E509541FFEE49318
:1008F500A360010ECF54C025E060A840B8E493A3DF
:10090500FAE493A3F8E493A3C8C582C8CAC583CA09
:10091500F0A3C8C582C8CAC583CADFE9DEE780BEC1
:010AC1000034
:00000001FF
